:10014100D2BBBCB6BFDAC1EEA3BAD0A1BDDC0D0AE9
:1001510000B6FEBCB6BFDAC1EEA3BA31A1A2B4FAB1
:10016100C2EBB2E2CAD40D0A000932A1A2BFAAB7FA
:10017100A2B0E5D1E9D6A40D0A000933A1A2BFAA14
:10018100B5C60D0A000934A1A2B9D8B5C60D0A0039
:10019100202035A1A2B1B1BEA90D0A000936A1A244
:1001A100C9CFBAA30D0A000937A1A2B9E3D6DD0D63
:1001B1000A00A1B0B4FAC2EBB2E2CAD4A1B1C3FC45
:1001C100C1EECAB6B1F0B3C9B9A60D0A00A1B0BF5C
:1001D100AAB7A2B0E5D1E9D6A4A1B1C3FCC1EECAC8
:1001E100B6B1F0B3C9B9A60D0A00A1B0B9D8B5C668
:1001F100A1B1C3FCC1EECAB6B1F0B3C9B9A60D0A2B
:1002010000A1B0B1B1BEA9A1B1C3FCC1EECAB6B1E2
:10021100F0B3C9B9A60D0A00A1B0C9CFBAA3A1B163
:10022100C3FCC1EECAB6B1F0B3C9B9A60D0A00A1AB
:10023100B0B9E3D6DDA1B1C3FCC1EECAB6B1F0B32A
:10024100C9B9A60D0A00C7EBD6D8D0C2CAB6B1F05B
:09025100B7A2BFDAC1EE0D0A00EC
:0609E800011C00011B00D0
:10053800E4F50912098E1209AA12087912091EE4B3
:10054800781CF6C294C296C295C2977BFF7A01794D
:10055800411209457BFF7A0179521209457BFF7ADE
:1005680001796A1209457BFF7A01797B1209457B7B
:10057800FF7A0179861209457BFF7A017991120980
:10058800457BFF7A01799D1209457BFF7A0179A89D
:10059800120945781CE61460FA24F1601824DF601B
:1005A800F224317020781C76011207E6EF70E478A7
:1005B8001C763180DE120A09781EEFF6120356E423
:0B05C800781CF680CEE4781CF680C89A
:10098E00B2C21209D0B2C21209D0B2C21209D0B28A
:0C099E00C21209D0B2C21209D0B2C222AB
:1009AA007580FF7590FF75A0FF75B0FF75C0FFC217
:0809BA00C3D289D2A8D2AF22FA
:0A09DD0000007F057E49DEFEDFFC0E
:0109E70022ED
:08096A008F148E138D128C1105
:10097200E4F515F516F517F518781174FF12002F26
:0B098200EC4D4E4F60051209DD80EEC9
:01098D002247
:0C09D0007F117ED07D1BDDFEDEFCDFFA17
:0109DC0022F8
:030003000208BA36
:1008BA00C0E0C0F0C083C082C0D075D000C000C004
:1008CA0001C002C003C004C005C006C0071205D398
:1008DA00D007D006D005D004D003D002D001D00072
:0B08EA00D0D0D082D083D0F0D0E0321C
:10035600EF12004D037C01038402038C0503DE16B5
:1003660003E61703EE2F03A83003BA3103CC32039A
:100376009933000003F67BFF7A0179B380787BFF1F
:100386007A0179CE80707BFF7A0179EB120945C23A
:1003960094800B7BFF7A0179EB120945D294C297C0
:1003A600801F7BFF7A0179EB120945C294C297C27E
:1003B60096D295227BFF7A0179EB120945C294D237
:1003C60097C296C295227BFF7A0179EB120945C244
:1003D60094C297D296C295227BFF7A027902801642
:1003E6007BFF7A027919800E7BFF7A0279308006CC
:0A03F6007BFF7A02794712094522C5
:10025A007869616F206A696500000000000000008B
:10026A00000000006B61692066612062616E20797E
:10027A00616E207A68656E67646169206D612063CA
:10028A006520736869000000000000006B61692046
:10029A0064656E67000000000000000000000000B6
:1002AA006775616E2064656E6700000000000000DB
:1002BA0000000000626569206A696E67000000003C
:1002CA0000000000000000007368616E672068612A
:1002DA006900000000000000000000006775616E00
:1002EA0067207A686F7500000000000000000000B7
:1002FA006C762020736500000000000000000000FA
:10030A0000000000626169207365000000000000BF
:10031A000000000000000000686F6E67207365002F
:10032A000000000000000000000000006C616E2068
:10033A0020736500000000000000000000000000BB
:0C034A00000201040516172F3031323379
:10087900D2B57F017E007D007C0012096AC2B57F76
:10088900017E007D007C0012096AD2B57F017E00DD
:100899007D007C0012096AC2A17F017E007D007C77
:1008A9000012096AD2A17F017E007D007C00020945
:0108B9006AD4
:100400007F061209FE7D357F171209F37F0A7E00F1
:100410007D007C0012096A7F061209FE7D037F8938
:100420001209F37F057E007D007C0012096A7D437E
:100430007FCF1209F37F057E007D007C0012096AE0
:100440007D027FCB1209F37D0A7F111209F3E4FDCF
:100450007F1E1209F37D3F7F191209F37D487F1B30
:100460001209F37D1F7F1D1209F37F0A7E007D00B4
:100470007C0012096A7D047FCD1209F37F057E009E
:100480007D007C0012096AE4FD7FB91209F37D4FFB
:0C0490007FCF1209F37DFF7F6F0209F39C
:10078700120400E4FD7FBD1209F37D487F171209AB
:10079700F37F0A7E007D007C0012096A7D807F3C22
:1007A7001209F37D077F3E1209F37DFF7F38120997
:1007B700F37D077F3A1209F3E4FD7F401209F37DC9
:1007C700087F421209F3E4FD7F441209F37D087F95
:0F07D700461209F37F017E007D007C0002096A53
:1005D300E4F508C2A87F2B1209FE781DA607E4FDE7
:1005E3007F291209F3E4FD7F021209F3781DE63037
:1005F300E42D7FB21209FEEF642170237FBF12093D
:10060300FEBF351B7FBA1209FE8F08E508D394009D
:10061300400DE508D394045006781C7610800478C6
:100623001C7611E4FD7F2B1209F3E4FD7F1C1209F4
:10063300F3E4FD7F291209F3E4FD7F021209F3E4D9
:10064300FD7F2B1209F3E4FD7FBA1209F3E4FD7F6A
:10065300BC1209F37D017F081209F3E4FD7F081240
:0406630009F3D2A81D
:010667002270
:1007E600E4F50AF50BF50A120A0F7F327E007D004A
:1007F6007C0012096A12049CEF700280117F0A7E47
:10080600007D007C0012096A120668EF701012085B
:10081600797F327E007D007C0012096A8005750BA7
:0E082600018009050AE50AC3940540BBAF0B2B
:0108340022A1
:1008F500E4F510F50F7FB21209FEBF210575100151
:1009050080147F0A7E007D007C0012096A050FE5D0
:080915000FC3940A40DFAF108C
:01091D0022B7
:030A0F0002078754
:10066800C2A87D507F351209F37D097F1C1209F35A
:100678007D207FBD1209F37D017F081209F37F01F8
:100688007E007D007C0012096AE4FD7F081209F3F0
:100698007F017E007D007C0012096A1208F5EF7068
:1006A80002FF227D0B7F1C1209F37DFF7FB2120926
:1006B800F37F017E007D007C0012096A7D067F378A
:1006C8001209F37F017E007D007C0012096A7D0615
:1006D8007F371209F37F057E007D007C0012096ACE
:1006E8007D107F291209F3E4FD7FBD1209F3D2A81A
:0306F8007F01225D
:10049C00750D01E4F50C1208F5EF7005F50D02056C
:1004AC0035E50C90034A93FD7FC11209F3E4FD7FFF
:1004BC00C31209F37D047F081209F37F017E007DCE
:1004CC00007C0012096AE4FD7F081209F37F017EAB
:1004DC00007D007C0012096AE4F50EE50C75F01441
:1004EC00A4245AF582E43402F583E582250EF582C4
:1004FC00E43583F583E493FD600E7F051209F30563
:10050C000EE50EC3941440D3AD0E7FB91209F37DE2
:10051C00FF7FB21209F37D047F371209F3050CE556
:0B052C000CC3940C50030204A2AF0D9E
:0105370022A1
:060A09007FC51209FE2268
:0B09F300908100EFF0908000EDF022FA
:0B09FE00908100EFF0908000E0FF22ED
:0409EE000219258045
:10091E00759850758920AE19AF1AAB07AA06E4F97F
:10092E00F8FF7EE1FDFC12083512001F8F8B8F8DB4
:07093E00D28ED2ACD2AF2231
:0E09C200C2ACC2998F993099FDC299D2AC2275
:100945008B0A8A0B890CAB0AAA0BA90C120006604C
:1009550013050CE50C7002050B14F9120006FF12C5
:0509650009C280E2223E
:030000000206FBFA
:0C06FB00787FE4F6D8FD75811E020742EE
:10000600BB010689828A83E0225002E722BBFE02F8
:09001600E32289828A83E493222B
:10083500C2D5E830E70FB2D5E4C39BFBE49AFAE4EE
:1008450099F9E498F8EC30E717B2D512086B120065
:10085500AFE4C39BFBE49AFAE499F9E498F88003C2
:100865001200AF30D50DE4C39FFFE49EFEE49DFD6D
:04087500E49CFC22E1
:0E001F00C3E49FFFE49EFEE49DFDE49CFC22F2
:10002D007401FF3395E0FEFDFC080808E6CF2FF6BE
:10003D0018E6CE3EF618E6CD3DF618E6CC3CF62297
:10004D00D083D082F8E4937012740193700DA3A342
:10005D0093F8740193F5828883E473740293686056
:06006D00EFA3A3A380DF56
:10070700020538E493A3F8E493A34003F68001F2CB
:1007170008DFF48029E493A3F85407240CC8C333F3
:10072700C4540F4420C8834004F456800146F6DFC2
:10073700E4800B01020408102040809009E8E47E61
:10074700019360BCA3FF543F30E509541FFEE493B7
:10075700A360010ECF54C025E060A840B8E493A37E
:10076700FAE493A3F8E493A3C8C582C8CAC583CAA9
:10077700F0A3C8C582C8CAC583CADFE9DEE780BE61
:0109F2000004
:1000730075F008758200EF2FFFEE33FECD33CDCC44
:1000830033CCC58233C5829BED9AEC99E5829840C7
:100093000CF582EE9BFEED9AFDEC99FC0FD5F0D6A4
:1000A300E4CEFBE4CDFAE4CCF9A88222B800C1B9CE
:1000B3000059BA002DEC8BF084CFCECDFCE5F0CB0C
:1000C300F97818EF2FFFEE33FEED33FDEC33FCEB45
:1000D30033FB10D703994004EB99FB0FD8E5E4F900
:1000E300FA227818EF2FFFEE33FEED33FDEC33FCED
:1000F300C933C910D7059BE99A4007EC9BFCE99AE1
:10010300F90FD8E0E4C9FAE4CCFB2275F010EF2F25
:10011300FFEE33FEED33FDCC33CCC833C810D70725
:100123009BEC9AE899400AED9BFDEC9AFCE899F860
:0E0133000FD5F0DAE4CDFBE4CCFAE4C8F922F3
:00000001FF
