:04014E0031323334E3
:1000F600AE071FEE6013E4FCFDC3ED9452EC9403CF
:0901060050EE0DBD00010C80F06B
:01010F0022CD
:0D0135008508EA8508FA8509EB8509FB229B
:10012300E4F5D8F5F9F5E975D90875DB42F5DAC2D6
:02013300DE22CA
:1001100053877F759850759CFD438E04438E014331
:030120008E10221C
:10000300120110120123E4F5A0F590F5DBF5DA7582
:1000130009FF7508FF1201353098FDAF997E00EF97
:100023006430700AC2DEF5A0F590F5DBF5DAEF6413
:10003300314E700DD2DEF5A07508EF12013575DA79
:1000430042EF64324E700DD2DEF5A07508AF120197
:100053003575DA42EF64334E700DD2DEF5A07508C4
:100063007F12013575DA42EF64344E700DD2DEF53E
:10007300A075083F12013575DA42EF64354E700DF5
:10008300D2DEF5A07509EF12013575DB42EF643658
:100093004E700DD2DEF5A07509AF12013575DB4246
:1000A300EF64374E700DD2DEF5A075098F1201355E
:1000B30075DB42EF64384E700DD2DEF5A075094F43
:1000C30012013575DB42EF64394E700DD2DEF5A0B7
:1000D30075091F12013575DB42EF64574E700FC26D
:1000E300DE75A0047509FF7508FFF5DBF5DAC29824
:0300F30002001BED
:03000000020142B8
:0C014200787FE4F6D8FD75810B02000305
:00000001FF
